:100000000C9453000C947B000C947B000C947B00AC
:100010000C947B000C947B000C947B000C947B0074
:100020000C947B000C947B000C947B000C947B0064
:100030000C947B000C947B000C947B000C947B0054
:100040000C94DB010C947B000C944B020C94250265
:100050000C947B000C947B000C947B000C947B0034
:100060000C947B000C947B0000000000250028000D
:100070002B0000000000240027002A0004040404D0
:100080000404040402020202020203030303030342
:10009000010204081020408001020408102001021F
:1000A000040810207D0211241FBECFEFD8E0DEBF70
:1000B000CDBF11E0A0E0B1E0EAEFF0E102C00590B1
:1000C0000D92AA34B107D9F722E0AAE4B1E001C049
:1000D0001D92A831B207E1F710E0C3E5D0E004C0FB
:1000E0002197FE010E947508C235D107C9F70E9409
:1000F000DE020C947B080C940000AF92BF92CF926A
:10010000DF92EF92FF920F931F93CF93DF936C01D7
:100110007B018B01040F151FEB015E01AE18BF08B8
:10012000C017D10759F06991D601ED91FC9101906A
:10013000F081E02DC6010995892B79F7C501DF9182
:10014000CF911F910F91FF90EF90DF90CF90BF90D4
:10015000AF900895FC01538D448D252F30E0842FFE
:1001600090E0821B930B541710F0CF9608950197DF
:100170000895FC01918D828D981761F0A28DAE0FCC
:10018000BF2FB11D5D968C91928D9F5F9F73928F53
:1001900090E008958FEF9FEF0895FC01918D828D7F
:1001A000981731F0828DE80FF11D858D90E008954C
:1001B0008FEF9FEF0895FC01918D228D892F90E0A4
:1001C000805C9F4F821B91098F739927089587E563
:1001D00091E00E94DB0021E0892B09F420E0822FCE
:1001E000089580E090E0892B29F00E94E7008111BA
:1001F0000C9400000895FC01A48DA80FB92FB11D27
:10020000A35ABF4F2C91848D90E001968F7399274C
:10021000848FA689B7892C93A089B1898C9183702A
:1002200080648C93938D848D981306C00288F38923
:10023000E02D80818F7D80830895EF92FF920F9350
:100240001F93CF93DF93EC0181E0888F9B8D8C8D82
:1002500098131AC0E889F989808185FF15C09FB776
:10026000F894EE89FF896083E889F9898081837039
:10027000806480839FBF81E090E0DF91CF911F91E8
:100280000F91FF90EF900895F62E0B8D10E00F5F09
:100290001F4F0F731127E02E8C8D8E110CC00FB6DF
:1002A00007FCFACFE889F989808185FFF5CFCE0177
:1002B0000E94FB00F1CFEB8DEC0FFD2FF11DE35AF7
:1002C000FF4FF0829FB7F8940B8FEA89FB898081FA
:1002D0008062CFCFCF93DF93EC01888D8823B9F074
:1002E000AA89BB89E889F9898C9185FD03C0808141
:1002F00086FD0DC00FB607FCF7CF8C9185FFF2CFBE
:10030000808185FFEDCFCE010E94FB00E9CFDF9118
:10031000CF910895FC0101900020E9F73197AF01DA
:10032000481B590BBC0187E591E00C947D008F922E
:100330009F92AF92BF920F931F93CF93DF93CDB74E
:10034000DEB7A1970FB6F894DEBF0FBECDBF19A2DE
:10035000423008F44AE08E010F5D1F4F842E912C2D
:10036000B12CA12CA50194010E943F08E62FB901F0
:10037000CA01EA30F4F4E05DD801EE938D01232B3D
:10038000242B252B79F790E080E0109719F0CD0110
:100390000E948A01A1960FB6F894DEBF0FBECDBFB2
:1003A000DF91CF911F910F91BF90AF909F908F9051
:1003B0000895E95CE1CF1F920F920FB60F921124BE
:1003C0002F933F938F939F93AF93BF93809153014C
:1003D00090915401A0915501B09156013091520174
:1003E00023E0230F2D3758F50196A11DB11D209351
:1003F00052018093530190935401A0935501B093FF
:10040000560180914E0190914F01A0915001B09101
:1004100051010196A11DB11D80934E0190934F0192
:10042000A0935001B0935101BF91AF919F918F91D3
:100430003F912F910F900FBE0F901F90189526E8B7
:10044000230F0296A11DB11DD2CF1F920F920FB69E
:100450000F9211242F933F934F935F936F937F934A
:100460008F939F93AF93BF93EF93FF9387E591E0B3
:100470000E94FB00FF91EF91BF91AF919F918F91EF
:100480007F916F915F914F913F912F910F900FBE90
:100490000F901F9018951F920F920FB60F92112474
:1004A0002F938F939F93EF93FF93E0916701F091C8
:1004B00068018081E0916D01F0916E0182FD1BC0A9
:1004C0009081809170018F5F8F73209171018217ED
:1004D00041F0E0917001F0E0E95AFE4F958F809372
:1004E0007001FF91EF919F918F912F910F900FBE0F
:1004F0000F901F9018958081F4CFE7E5F1E013820B
:10050000128288EE93E0A0E0B0E084839583A68316
:10051000B78384E091E09183808385EC90E09587B8
:10052000848784EC90E09787868780EC90E0918BBD
:10053000808B81EC90E0938B828B82EC90E0958BAA
:10054000848B86EC90E0978B868B118E128E138EA7
:10055000148EE4EFF1E08EE090E09183808380E000
:1005600090E0A0EAB0E482839383A483B5838AE019
:1005700090E09783868380E090E0A0E8BFE38087E7
:100580009187A287B38780E090E0A0E0B4E48687FB
:100590009787A08BB18B168A178A108E118E138EB7
:1005A000128E148E158E168E178E10A211A212A204
:1005B00013A282E390E0958784870895789484B5A8
:1005C000826084BD84B5816084BD85B5826085BD4F
:1005D00085B5816085BD80916E00816080936E00DD
:1005E00010928100809181008260809381008091CF
:1005F0008100816080938100809180008160809380
:1006000080008091B10084608093B1008091B0003F
:1006100081608093B00080917A00846080937A003A
:1006200080917A00826080937A0080917A00816064
:1006300080937A0080917A00806880937A0010928B
:10064000C100E0916701F091680182E08083E09150
:100650006301F09164011082E0916501F0916601FF
:1006600080E1808310926F01E0916B01F0916C0149
:1006700086E08083E0916901F0916A018081806168
:100680008083E0916901F0916A01808188608083B4
:10069000E0916901F0916A01808180688083E09136
:1006A0006901F0916A0180818F7D80838091F401DE
:1006B0009091F5019927FC01E057FF4F2491845850
:1006C0009F4FFC0184918823C1F090E0880F991F0F
:1006D000FC01EE58FF4FC591D491FC01E859FF4F42
:1006E000A591B4919FB7F8948881E22FE0958E236D
:1006F00088838C91E823EC939FBF84EE98E3AEED62
:10070000B2E48093FC019093FD01A093FE01B093AD
:10071000FF018CE390E0909301028093000282E15C
:1007200091E00E948A018EE291E00E948A01C8EE67
:10073000D3E08AE0982EAA24A394B12C00E010E024
:1007400080910E0290910F02892B99F42FB7F894A3
:100750008091530190915401A0915501B09156019F
:100760002FBF8093100290931102A0931202B093B6
:1007700013028091F4018E3008F08E5087708064EF
:1007800080937C0080917A00806480937A008091CD
:100790007A0086FDFCCF6091780070917900C0905E
:1007A0000202D0900302E0900402F0900502072EAE
:1007B000000C880B990B0E94A9062B013C01A70194
:1007C00096010E94940520E030E040E85AE30E9440
:1007D0005E07A70196010E9495059B01AC0120933D
:1007E0000202309303024093040250930502C301B6
:1007F000B2010E94940560930602709307028093F1
:100800000802909309029B01AC010E945E079B01C4
:10081000AC0160910A0270910B0280910C029091E0
:100820000D020E94950560930A0270930B0280935B
:100830000C0290930D0280910E0290910F0201968E
:1008400090930F0280930E0260910002709101025A
:10085000CE010E942B08969EA001979E500D112458
:10086000052E000C660B770B2FB7F894809153017F
:1008700090915401A0915501B09156012FBFC090A5
:100880001002D0901102E0901202F09013028C1925
:100890009D09AE09BF0984179507A607B70708F495
:1008A000A5C060910E0270910F02072E000C880BFC
:1008B000990B0E94A9069B01AC0160910A027091FC
:1008C0000B0280910C0290910D020E9406060E947C
:1008D000D1076B017C01B5010090FA0102C0660FDF
:1008E000771F0A94E2F7072E000C880B990B0E94E1
:1008F000A9069B01AC01C701B6010E940606209122
:10090000F6013091F7014091F8015091F9010E94F0
:100910005E072091FC013091FD014091FE01509154
:10092000FF010E945E07609314027093150280938A
:1009300016029093170210920A0210920B02109264
:100940000C0210920D0210920F0210920E022FB79D
:10095000F8948091530190915401A0915501B09168
:1009600056012FBF40914A0150914B0160914C01BB
:1009700070914D01841B950BA60BB70B853F9140E1
:10098000A105B10598F12FB7F8948091530190918A
:100990005401A0915501B09156012FBF80934A0197
:1009A00090934B01A0934C01B0934D01C090140261
:1009B000D0901502E0901602F090170281E391E0CA
:1009C0000E948A01A7019601C701B6010E94110881
:1009D0008823C1F08BE391E00E948A0187E491E0D3
:1009E0000E948A018EE291E00E948A0101151105A0
:1009F00009F4A6CE0E94E700882309F4A1CE0E9444
:100A000000009ECE26013701E89477F82FEF3FEFE4
:100A10004FE75FE7C301B2010E94110881110DC0C9
:100A20002FEF3FEF4FE75FE7C301B2010E940106DE
:100A300018161CF48FE391E0CFCF2FEF3FEF4FE775
:100A40005FE4C701B6010E94590718161CF483E43D
:100A500091E0C2CF2FEF3FEF4FE75FECC701B60148
:100A60000E94010687FDF3CF20E030E0A901C70115
:100A7000B6010E94010687FF09C06DE287E591E09B
:100A80000E941D01F7FAF094F7F8F0942AE037ED90
:100A900043EA5BE3C701B6010E9495052B013C01C7
:100AA0000E9478066B017C010E94A7069B01AC01A5
:100AB000C301B2010E9494052B013C014AE0C70129
:100AC000B6010E9497016EE287E591E00E941D0148
:100AD00020E030E040E251E4C301B2010E945E0731
:100AE0002B013C010E9478066B01F12CE12C4AE0BD
:100AF000C701B6010E949701C701B6010E94A7066F
:100B00009B01AC01C301B2010E94940520E030E0DA
:100B100040E251E40E945E070E94780690E080E087
:100B20004AE00E9497015ACF5058BB27AA270E943B
:100B3000AC050C941F070E94110738F00E9418079B
:100B400020F039F49F3F19F426F40C940E070EF4AC
:100B5000E095E7FB0C940807E92F0E94300758F353
:100B6000BA17620773078407950720F079F4A6F592
:100B70000C9452070EF4E0950B2EBA2FA02D0B010A
:100B8000B90190010C01CA01A0011124FF27591BD2
:100B900099F0593F50F4503E68F11A16F040A22FD8
:100BA000232F342F4427585FF3CF46953795279549
:100BB000A795F0405395C9F77EF41F16BA0B620B48
:100BC000730B840BBAF09150A1F0FF0FBB1F661F8F
:100BD000771F881FC2F70EC0BA0F621F731F841FD2
:100BE00048F4879577956795B795F7959E3F08F0F8
:100BF000B0CF9395880F08F09927EE0F97958795BA
:100C000008950E94E40608F481E008950E941A06FF
:100C10000C941F070E94180758F00E94110740F01B
:100C200029F45F3F29F00C94080751110C945307E5
:100C30000C940E070E94300768F39923B1F35523F3
:100C400091F3951B550BBB27AA27621773078407DF
:100C500038F09F5F5F4F220F331F441FAA1FA9F375
:100C600035D00E2E3AF0E0E832D091505040E69563
:100C7000001CCAF72BD0FE2F29D0660F771F881FC4
:100C8000BB1F261737074807AB07B0E809F0BB0BB7
:100C9000802DBF01FF2793585F4F3AF09E3F5105CB
:100CA00078F00C9408070C9453075F3FE4F3983EE8
:100CB000D4F3869577956795B795F7959F5FC9F7B4
:100CC000880F911D9695879597F90895E1E0660F35
:100CD000771F881FBB1F621773078407BA0720F0AE
:100CE000621B730B840BBA0BEE1F88F7E095089517
:100CF0000E94380788F09F5798F0B92F9927B7516D
:100D0000B0F0E1F0660F771F881F991F1AF0BA95AF
:100D1000C9F714C0B13091F00E945207B1E00895B4
:100D20000C945207672F782F8827B85F39F0B93FA6
:100D3000CCF3869577956795B395D9F73EF4909562
:100D40008095709561957F4F8F4F9F4F0895E894E0
:100D500009C097FB3EF490958095709561957F4F03
:100D60008F4F9F4F9923A9F0F92F96E9BB279395B1
:100D7000F695879577956795B795F111F8CFFAF4C1
:100D8000BB0F11F460FF1BC06F5F7F4F8F4F9F4FF2
:100D900016C0882311F096E911C0772321F09EE850
:100DA000872F762F05C0662371F096E8862F70E0B6
:100DB00060E02AF09A95660F771F881FDAF7880F90
:100DC0009695879597F90895990F0008550FAA0BE6
:100DD000E0E8FEEF16161706E807F907C0F012164E
:100DE0001306E407F50798F0621B730B840B950B51
:100DF00039F40A2661F0232B242B252B21F40895A6
:100E00000A2609F4A140A6958FEF811D811D089542
:100E100097F99F6780E870E060E008959FEF80ECAD
:100E2000089500240A941616170618060906089550
:100E300000240A9412161306140605060895092EB6
:100E40000394000C11F4882352F0BB0F40F4BF2B25
:100E500011F460FF04C06F5F7F4F8F4F9F4F089565
:100E600057FD9058440F551F59F05F3F71F047955B
:100E7000880F97FB991F61F09F3F79F08795089540
:100E8000121613061406551FF2CF4695F1DF08C05F
:100E9000161617061806991FF1CF8695710561057C
:100EA00008940895E894BB2766277727CB0197F924
:100EB00008950E94E40608F48FEF08950E947107D8
:100EC0000C941F070E94110738F00E94180720F0A9
:100ED000952311F00C9408070C940E0711240C9420
:100EE00053070E94300770F3959FC1F3950F50E0B0
:100EF000551F629FF001729FBB27F00DB11D639FCC
:100F0000AA27F00DB11DAA1F649F6627B00DA11D71
:100F1000661F829F2227B00DA11D621F739FB00D17
:100F2000A11D621F839FA00D611D221F749F332787
:100F3000A00D611D231F849F600D211D822F762F20
:100F40006A2F11249F5750409AF0F1F088234AF0FD
:100F5000EE0FFF1FBB1F661F771F881F9150504069
:100F6000A9F79E3F510580F00C9408070C94530795
:100F70005F3FE4F3983ED4F3869577956795B795F0
:100F8000F795E7959F5FC1F7FE2B880F911D96950A
:100F9000879597F9089519F416F40C940E070C949C
:100FA00016080E943807B8F39923C9F3B6F39F5780
:100FB000550B87FF0E9424080024A0E640EA900118
:100FC00080585695979528F4805C660F771F881F88
:100FD00020F026173707480730F4621B730B840B89
:100FE000202931294A2BA6951794079420253125CD
:100FF0004A2758F7660F771F881F20F026173707F4
:10100000480730F4620B730B840B200D311D411D1A
:10101000A09581F7B901842F9158880F96958795EF
:1010200008950E94E406880B990B08959F3F31F0C4
:10103000915020F4879577956795B795880F911D06
:101040009695879597F9089591505040660F771FB0
:10105000881FD2F7089597FB072E16F4009407D047
:1010600077FD09D00E94610807FC05D03EF49095F9
:1010700081959F4F0895709561957F4F0895A1E2E6
:101080001A2EAA1BBB1BFD010DC0AA1FBB1FEE1F02
:10109000FF1FA217B307E407F50720F0A21BB30B4D
:1010A000E40BF50B661F771F881F991F1A9469F7C9
:1010B00060957095809590959B01AC01BD01CF0125
:1010C0000895AA1BBB1B51E107C0AA1FBB1FA6178F
:1010D000B70710F0A61BB70B881F991F5A95A9F7E1
:1010E00080959095BC01CD010895EE0FFF1F0590EE
:0A10F000F491E02D0994F894FFCF6D
:1010FA00000000001D017D00AA006A01DB00B900A2
:10110A00CD00534354303133204E6F6E2D426C6FF5
:10111A00636B696E67204578616D706C65000D0AB6
:10112A000043757272656E743A20006E616E0069D2
:0A113A006E66006F7666002041002B
:00000001FF
